{
  "_format": "hh-sol-artifact-1",
  "contractName": "EventProposal",
  "sourceName": "contracts/EventProposal.sol",
  "abi": [
    {
      "inputs": [],
      "stateMutability": "nonpayable",
      "type": "constructor"
    },
    {
      "anonymous": false,
      "inputs": [
        {
          "indexed": true,
          "internalType": "string",
          "name": "name",
          "type": "string"
        },
        {
          "indexed": false,
          "internalType": "uint256",
          "name": "count",
          "type": "uint256"
        }
      ],
      "name": "ProposalActive",
      "type": "event"
    },
    {
      "anonymous": false,
      "inputs": [
        {
          "indexed": true,
          "internalType": "string",
          "name": "name",
          "type": "string"
        },
        {
          "indexed": false,
          "internalType": "uint256",
          "name": "count",
          "type": "uint256"
        }
      ],
      "name": "ProposalApproved",
      "type": "event"
    },
    {
      "anonymous": false,
      "inputs": [
        {
          "indexed": true,
          "internalType": "string",
          "name": "name",
          "type": "string"
        },
        {
          "indexed": false,
          "internalType": "uint16",
          "name": "quorum",
          "type": "uint16"
        }
      ],
      "name": "ProposalCreated",
      "type": "event"
    },
    {
      "inputs": [
        {
          "internalType": "string",
          "name": "_name",
          "type": "string"
        },
        {
          "internalType": "string",
          "name": "_desc",
          "type": "string"
        },
        {
          "internalType": "uint16",
          "name": "_quorum",
          "type": "uint16"
        }
      ],
      "name": "createProposal",
      "outputs": [],
      "stateMutability": "nonpayable",
      "type": "function"
    },
    {
      "inputs": [
        {
          "internalType": "uint8",
          "name": "_index",
          "type": "uint8"
        }
      ],
      "name": "getAProposal",
      "outputs": [
        {
          "internalType": "string",
          "name": "name_",
          "type": "string"
        },
        {
          "internalType": "string",
          "name": "desc_",
          "type": "string"
        },
        {
          "internalType": "uint16",
          "name": "count_",
          "type": "uint16"
        },
        {
          "internalType": "address[]",
          "name": "voters_",
          "type": "address[]"
        },
        {
          "internalType": "uint16",
          "name": "quorum_",
          "type": "uint16"
        },
        {
          "internalType": "enum EventProposal.PropsStatus",
          "name": "status_",
          "type": "uint8"
        }
      ],
      "stateMutability": "view",
      "type": "function"
    },
    {
      "inputs": [],
      "name": "getAllProposals",
      "outputs": [
        {
          "components": [
            {
              "internalType": "string",
              "name": "name",
              "type": "string"
            },
            {
              "internalType": "string",
              "name": "description",
              "type": "string"
            },
            {
              "internalType": "uint16",
              "name": "voteCount",
              "type": "uint16"
            },
            {
              "internalType": "address[]",
              "name": "voters",
              "type": "address[]"
            },
            {
              "internalType": "uint16",
              "name": "quorum",
              "type": "uint16"
            },
            {
              "internalType": "enum EventProposal.PropsStatus",
              "name": "status",
              "type": "uint8"
            }
          ],
          "internalType": "struct EventProposal.Proposal[]",
          "name": "",
          "type": "tuple[]"
        }
      ],
      "stateMutability": "view",
      "type": "function"
    },
    {
      "inputs": [
        {
          "internalType": "uint256",
          "name": "",
          "type": "uint256"
        }
      ],
      "name": "proposals",
      "outputs": [
        {
          "internalType": "string",
          "name": "name",
          "type": "string"
        },
        {
          "internalType": "string",
          "name": "description",
          "type": "string"
        },
        {
          "internalType": "uint16",
          "name": "voteCount",
          "type": "uint16"
        },
        {
          "internalType": "uint16",
          "name": "quorum",
          "type": "uint16"
        },
        {
          "internalType": "enum EventProposal.PropsStatus",
          "name": "status",
          "type": "uint8"
        }
      ],
      "stateMutability": "view",
      "type": "function"
    },
    {
      "inputs": [
        {
          "internalType": "uint8",
          "name": "_index",
          "type": "uint8"
        },
        {
          "internalType": "bool",
          "name": "_votingPower",
          "type": "bool"
        },
        {
          "internalType": "address",
          "name": "_by",
          "type": "address"
        }
      ],
      "name": "voteOnProposal",
      "outputs": [],
      "stateMutability": "nonpayable",
      "type": "function"
    }
  ],
  "bytecode": "0x6080604052348015600f57600080fd5b5061209a8061001f6000396000f3fe608060405234801561001057600080fd5b50600436106100575760003560e01c8063013cf08b1461005c57806367d7a41914610090578063bcf2e026146100c5578063cceb68f5146100e1578063ed22d83c146100ff575b600080fd5b6100766004803603810190610071919061107d565b61011b565b6040516100879594939291906111ce565b60405180910390f35b6100aa60048036038101906100a59190611268565b61029a565b6040516100bc96959493929190611385565b60405180910390f35b6100df60048036038101906100da919061155c565b6105f2565b005b6100e9610800565b6040516100f69190611817565b60405180910390f35b6101196004803603810190610114919061189d565b610a8c565b005b6001818154811061012b57600080fd5b906000526020600020906005020160009150905080600001805461014e9061191f565b80601f016020809104026020016040519081016040528092919081815260200182805461017a9061191f565b80156101c75780601f1061019c576101008083540402835291602001916101c7565b820191906000526020600020905b8154815290600101906020018083116101aa57829003601f168201915b5050505050908060010180546101dc9061191f565b80601f01602080910402602001604051908101604052809291908181526020018280546102089061191f565b80156102555780601f1061022a57610100808354040283529160200191610255565b820191906000526020600020905b81548152906001019060200180831161023857829003601f168201915b5050505050908060020160009054906101000a900461ffff16908060040160009054906101000a900461ffff16908060040160029054906101000a900460ff16905085565b60608060006060600080600073ffffffffffffffffffffffffffffffffffffffff163373ffffffffffffffffffffffffffffffffffffffff1603610313576040517f08c379a000000000000000000000000000000000000000000000000000000000815260040161030a9061199c565b60405180910390fd5b6001805490508760ff161061035d576040517f08c379a000000000000000000000000000000000000000000000000000000000815260040161035490611a08565b60405180910390fd5b600060018860ff168154811061037657610375611a28565b5b90600052602060002090600502016040518060c001604052908160008201805461039f9061191f565b80601f01602080910402602001604051908101604052809291908181526020018280546103cb9061191f565b80156104185780601f106103ed57610100808354040283529160200191610418565b820191906000526020600020905b8154815290600101906020018083116103fb57829003601f168201915b505050505081526020016001820180546104319061191f565b80601f016020809104026020016040519081016040528092919081815260200182805461045d9061191f565b80156104aa5780601f1061047f576101008083540402835291602001916104aa565b820191906000526020600020905b81548152906001019060200180831161048d57829003601f168201915b505050505081526020016002820160009054906101000a900461ffff1661ffff1661ffff1681526020016003820180548060200260200160405190810160405280929190818152602001828054801561055857602002820191906000526020600020905b8160009054906101000a900473ffffffffffffffffffffffffffffffffffffffff1673ffffffffffffffffffffffffffffffffffffffff168152602001906001019080831161050e575b505050505081526020016004820160009054906101000a900461ffff1661ffff1661ffff1681526020016004820160029054906101000a900460ff1660038111156105a6576105a5611157565b5b60038111156105b8576105b7611157565b5b81525050905080600001519650806020015195508060400151945080606001519350806080015192508060a0015191505091939550919395565b600073ffffffffffffffffffffffffffffffffffffffff163373ffffffffffffffffffffffffffffffffffffffff1603610661576040517f08c379a000000000000000000000000000000000000000000000000000000000815260040161065890611aa3565b60405180910390fd5b610669610f3c565b83816000018190525082816020018190525081816080019061ffff16908161ffff168152505060018160a0019060038111156106a8576106a7611157565b5b908160038111156106bc576106bb611157565b5b81525050600181908060018154018082558091505060019003906000526020600020906005020160009091909190915060008201518160000190816107019190611c6f565b5060208201518160010190816107179190611c6f565b5060408201518160020160006101000a81548161ffff021916908361ffff1602179055506060820151816003019080519060200190610757929190610f8c565b5060808201518160040160006101000a81548161ffff021916908361ffff16021790555060a08201518160040160026101000a81548160ff021916908360038111156107a6576107a5611157565b5b02179055505050836040516107bb9190611d7d565b60405180910390207fd676bd5a867d12796d6ef62a604d07c83bdce30aaf9471431d7772e1ba09e222836040516107f29190611d94565b60405180910390a250505050565b60606001805480602002602001604051908101604052809291908181526020016000905b82821015610a8357838290600052602060002090600502016040518060c00160405290816000820180546108579061191f565b80601f01602080910402602001604051908101604052809291908181526020018280546108839061191f565b80156108d05780601f106108a5576101008083540402835291602001916108d0565b820191906000526020600020905b8154815290600101906020018083116108b357829003601f168201915b505050505081526020016001820180546108e99061191f565b80601f01602080910402602001604051908101604052809291908181526020018280546109159061191f565b80156109625780601f1061093757610100808354040283529160200191610962565b820191906000526020600020905b81548152906001019060200180831161094557829003601f168201915b505050505081526020016002820160009054906101000a900461ffff1661ffff1661ffff16815260200160038201805480602002602001604051908101604052809291908181526020018280548015610a1057602002820191906000526020600020905b8160009054906101000a900473ffffffffffffffffffffffffffffffffffffffff1673ffffffffffffffffffffffffffffffffffffffff16815260200190600101908083116109c6575b505050505081526020016004820160009054906101000a900461ffff1661ffff1661ffff1681526020016004820160029054906101000a900460ff166003811115610a5e57610a5d611157565b5b6003811115610a7057610a6f611157565b5b8152505081526020019060010190610824565b50505050905090565b600073ffffffffffffffffffffffffffffffffffffffff163373ffffffffffffffffffffffffffffffffffffffff1603610afb576040517f08c379a0000000000000000000000000000000000000000000000000000000008152600401610af29061199c565b60405180910390fd5b6001805490508360ff1610610b45576040517f08c379a0000000000000000000000000000000000000000000000000000000008152600401610b3c90611dfb565b60405180910390fd5b6000808273ffffffffffffffffffffffffffffffffffffffff1673ffffffffffffffffffffffffffffffffffffffff16815260200190815260200160002060008460ff1660ff16815260200190815260200160002060009054906101000a900460ff1615610be8576040517f08c379a0000000000000000000000000000000000000000000000000000000008152600401610bdf90611e67565b60405180910390fd5b600060018460ff1681548110610c0157610c00611a28565b5b90600052602060002090600502019050600380811115610c2457610c23611157565b5b8160040160029054906101000a900460ff166003811115610c4857610c47611157565b5b03610c88576040517f08c379a0000000000000000000000000000000000000000000000000000000008152600401610c7f90611ef9565b60405180910390fd5b8215610ccf5760028160020160008282829054906101000a900461ffff16610cb09190611f48565b92506101000a81548161ffff021916908361ffff160217905550610d0c565b60018160020160008282829054906101000a900461ffff16610cf19190611f48565b92506101000a81548161ffff021916908361ffff1602179055505b80600301829080600181540180825580915050600190039060005260206000200160009091909190916101000a81548173ffffffffffffffffffffffffffffffffffffffff021916908373ffffffffffffffffffffffffffffffffffffffff16021790555060028160040160026101000a81548160ff02191690836003811115610d9957610d98611157565b5b021790555060016000808473ffffffffffffffffffffffffffffffffffffffff1673ffffffffffffffffffffffffffffffffffffffff16815260200190815260200160002060008660ff1660ff16815260200190815260200160002060006101000a81548160ff0219169083151502179055508060040160009054906101000a900461ffff1661ffff168160020160009054906101000a900461ffff1661ffff1610610ed35760038160040160026101000a81548160ff02191690836003811115610e6757610e66611157565b5b021790555080600001604051610e7d9190612001565b60405180910390207f57ee8a914ff41f9df2d7f3b88352952ab8f702bc31ab97fa3240d82460a9f3548260020160009054906101000a900461ffff16604051610ec69190612049565b60405180910390a2610f36565b80600001604051610ee49190612001565b60405180910390207f21b4246139e955ef22ce210d80dafa91cc534302377e7dd1e96aae64694a4a9f8260020160009054906101000a900461ffff16604051610f2d9190612049565b60405180910390a25b50505050565b6040518060c001604052806060815260200160608152602001600061ffff16815260200160608152602001600061ffff16815260200160006003811115610f8657610f85611157565b5b81525090565b828054828255906000526020600020908101928215611005579160200282015b828111156110045782518260006101000a81548173ffffffffffffffffffffffffffffffffffffffff021916908373ffffffffffffffffffffffffffffffffffffffff16021790555091602001919060010190610fac565b5b5090506110129190611016565b5090565b5b8082111561102f576000816000905550600101611017565b5090565b6000604051905090565b600080fd5b600080fd5b6000819050919050565b61105a81611047565b811461106557600080fd5b50565b60008135905061107781611051565b92915050565b6000602082840312156110935761109261103d565b5b60006110a184828501611068565b91505092915050565b600081519050919050565b600082825260208201905092915050565b60005b838110156110e45780820151818401526020810190506110c9565b60008484015250505050565b6000601f19601f8301169050919050565b600061110c826110aa565b61111681856110b5565b93506111268185602086016110c6565b61112f816110f0565b840191505092915050565b600061ffff82169050919050565b6111518161113a565b82525050565b7f4e487b7100000000000000000000000000000000000000000000000000000000600052602160045260246000fd5b6004811061119757611196611157565b5b50565b60008190506111a882611186565b919050565b60006111b88261119a565b9050919050565b6111c8816111ad565b82525050565b600060a08201905081810360008301526111e88188611101565b905081810360208301526111fc8187611101565b905061120b6040830186611148565b6112186060830185611148565b61122560808301846111bf565b9695505050505050565b600060ff82169050919050565b6112458161122f565b811461125057600080fd5b50565b6000813590506112628161123c565b92915050565b60006020828403121561127e5761127d61103d565b5b600061128c84828501611253565b91505092915050565b600081519050919050565b600082825260208201905092915050565b6000819050602082019050919050565b600073ffffffffffffffffffffffffffffffffffffffff82169050919050565b60006112ec826112c1565b9050919050565b6112fc816112e1565b82525050565b600061130e83836112f3565b60208301905092915050565b6000602082019050919050565b600061133282611295565b61133c81856112a0565b9350611347836112b1565b8060005b8381101561137857815161135f8882611302565b975061136a8361131a565b92505060018101905061134b565b5085935050505092915050565b600060c082019050818103600083015261139f8189611101565b905081810360208301526113b38188611101565b90506113c26040830187611148565b81810360608301526113d48186611327565b90506113e36080830185611148565b6113f060a08301846111bf565b979650505050505050565b600080fd5b600080fd5b7f4e487b7100000000000000000000000000000000000000000000000000000000600052604160045260246000fd5b61143d826110f0565b810181811067ffffffffffffffff8211171561145c5761145b611405565b5b80604052505050565b600061146f611033565b905061147b8282611434565b919050565b600067ffffffffffffffff82111561149b5761149a611405565b5b6114a4826110f0565b9050602081019050919050565b82818337600083830152505050565b60006114d36114ce84611480565b611465565b9050828152602081018484840111156114ef576114ee611400565b5b6114fa8482856114b1565b509392505050565b600082601f830112611517576115166113fb565b5b81356115278482602086016114c0565b91505092915050565b6115398161113a565b811461154457600080fd5b50565b60008135905061155681611530565b92915050565b6000806000606084860312156115755761157461103d565b5b600084013567ffffffffffffffff81111561159357611592611042565b5b61159f86828701611502565b935050602084013567ffffffffffffffff8111156115c0576115bf611042565b5b6115cc86828701611502565b92505060406115dd86828701611547565b9150509250925092565b600081519050919050565b600082825260208201905092915050565b6000819050602082019050919050565b600082825260208201905092915050565b600061162f826110aa565b6116398185611613565b93506116498185602086016110c6565b611652816110f0565b840191505092915050565b6116668161113a565b82525050565b600082825260208201905092915050565b600061168882611295565b611692818561166c565b935061169d836112b1565b8060005b838110156116ce5781516116b58882611302565b97506116c08361131a565b9250506001810190506116a1565b5085935050505092915050565b6116e4816111ad565b82525050565b600060c08301600083015184820360008601526117078282611624565b915050602083015184820360208601526117218282611624565b9150506040830151611736604086018261165d565b506060830151848203606086015261174e828261167d565b9150506080830151611763608086018261165d565b5060a083015161177660a08601826116db565b508091505092915050565b600061178d83836116ea565b905092915050565b6000602082019050919050565b60006117ad826115e7565b6117b781856115f2565b9350836020820285016117c985611603565b8060005b8581101561180557848403895281516117e68582611781565b94506117f183611795565b925060208a019950506001810190506117cd565b50829750879550505050505092915050565b6000602082019050818103600083015261183181846117a2565b905092915050565b60008115159050919050565b61184e81611839565b811461185957600080fd5b50565b60008135905061186b81611845565b92915050565b61187a816112e1565b811461188557600080fd5b50565b60008135905061189781611871565b92915050565b6000806000606084860312156118b6576118b561103d565b5b60006118c486828701611253565b93505060206118d58682870161185c565b92505060406118e686828701611888565b9150509250925092565b7f4e487b7100000000000000000000000000000000000000000000000000000000600052602260045260246000fd5b6000600282049050600182168061193757607f821691505b60208210810361194a576119496118f0565b5b50919050565b7f5a65726f206e6f7420616c6c6f77656400000000000000000000000000000000600082015250565b60006119866010836110b5565b915061199182611950565b602082019050919050565b600060208201905081810360008301526119b581611979565b9050919050565b7f496e646578206973206f75742d6f662d626f756e640000000000000000000000600082015250565b60006119f26015836110b5565b91506119fd826119bc565b602082019050919050565b60006020820190508181036000830152611a21816119e5565b9050919050565b7f4e487b7100000000000000000000000000000000000000000000000000000000600052603260045260246000fd5b7f5a65726f2061646472657373206e6f7420616c6c6f7765640000000000000000600082015250565b6000611a8d6018836110b5565b9150611a9882611a57565b602082019050919050565b60006020820190508181036000830152611abc81611a80565b9050919050565b60008190508160005260206000209050919050565b60006020601f8301049050919050565b600082821b905092915050565b600060088302611b257fffffffffffffffffffffffffffffffffffffffffffffffffffffffffffffffff82611ae8565b611b2f8683611ae8565b95508019841693508086168417925050509392505050565b6000819050919050565b6000611b6c611b67611b6284611047565b611b47565b611047565b9050919050565b6000819050919050565b611b8683611b51565b611b9a611b9282611b73565b848454611af5565b825550505050565b600090565b611baf611ba2565b611bba818484611b7d565b505050565b5b81811015611bde57611bd3600082611ba7565b600181019050611bc0565b5050565b601f821115611c2357611bf481611ac3565b611bfd84611ad8565b81016020851015611c0c578190505b611c20611c1885611ad8565b830182611bbf565b50505b505050565b600082821c905092915050565b6000611c4660001984600802611c28565b1980831691505092915050565b6000611c5f8383611c35565b9150826002028217905092915050565b611c78826110aa565b67ffffffffffffffff811115611c9157611c90611405565b5b611c9b825461191f565b611ca6828285611be2565b600060209050601f831160018114611cd95760008415611cc7578287015190505b611cd18582611c53565b865550611d39565b601f198416611ce786611ac3565b60005b82811015611d0f57848901518255600182019150602085019450602081019050611cea565b86831015611d2c5784890151611d28601f891682611c35565b8355505b6001600288020188555050505b505050505050565b600081905092915050565b6000611d57826110aa565b611d618185611d41565b9350611d718185602086016110c6565b80840191505092915050565b6000611d898284611d4c565b915081905092915050565b6000602082019050611da96000830184611148565b92915050565b7f696e646578206973206f75742d6f662d626f756e640000000000000000000000600082015250565b6000611de56015836110b5565b9150611df082611daf565b602082019050919050565b60006020820190508181036000830152611e1481611dd8565b9050919050565b7f596f7527766520766f74656420616c7265616479000000000000000000000000600082015250565b6000611e516014836110b5565b9150611e5c82611e1b565b602082019050919050565b60006020820190508181036000830152611e8081611e44565b9050919050565b7f546869732070726f706f73616c20686173206265656e2061636365707465642060008201527f616c726561647900000000000000000000000000000000000000000000000000602082015250565b6000611ee36027836110b5565b9150611eee82611e87565b604082019050919050565b60006020820190508181036000830152611f1281611ed6565b9050919050565b7f4e487b7100000000000000000000000000000000000000000000000000000000600052601160045260246000fd5b6000611f538261113a565b9150611f5e8361113a565b9250828201905061ffff811115611f7857611f77611f19565b5b92915050565b60008154611f8b8161191f565b611f958186611d41565b94506001821660008114611fb05760018114611fc557611ff8565b60ff1983168652811515820286019350611ff8565b611fce85611ac3565b60005b83811015611ff057815481890152600182019150602081019050611fd1565b838801955050505b50505092915050565b600061200d8284611f7e565b915081905092915050565b600061203361202e6120298461113a565b611b47565b611047565b9050919050565b61204381612018565b82525050565b600060208201905061205e600083018461203a565b9291505056fea264697066735822122064d08266435b810e6deb9f367292992240d1abe2e03e0d79fa5c95d62051b0f564736f6c634300081b0033",
  "linkReferences": {},
  "deployedLinkReferences": {}
}