{
  "_format": "hh-sol-artifact-1",
  "contractName": "TokenPurchase",
  "sourceName": "contracts/EVHTokenPurchase.sol",
  "abi": [
    {
      "inputs": [
        {
          "internalType": "contract IERC20",
          "name": "_eventHubToken",
          "type": "address"
        },
        {
          "internalType": "contract IERC20",
          "name": "_usdtTokenCAddr",
          "type": "address"
        }
      ],
      "stateMutability": "nonpayable",
      "type": "constructor"
    },
    {
      "anonymous": false,
      "inputs": [
        {
          "indexed": true,
          "internalType": "address",
          "name": "from",
          "type": "address"
        },
        {
          "indexed": true,
          "internalType": "address",
          "name": "to",
          "type": "address"
        },
        {
          "indexed": false,
          "internalType": "uint256",
          "name": "amount",
          "type": "uint256"
        }
      ],
      "name": "SwapSuccessful",
      "type": "event"
    },
    {
      "anonymous": false,
      "inputs": [
        {
          "indexed": true,
          "internalType": "address",
          "name": "owner",
          "type": "address"
        },
        {
          "indexed": true,
          "internalType": "enum TokenPurchase.Currency",
          "name": "_currencyName",
          "type": "uint8"
        },
        {
          "indexed": false,
          "internalType": "uint256",
          "name": "amount",
          "type": "uint256"
        }
      ],
      "name": "WithdrawSuccessful",
      "type": "event"
    },
    {
      "inputs": [],
      "name": "eventHubToken",
      "outputs": [
        {
          "internalType": "contract IERC20",
          "name": "",
          "type": "address"
        }
      ],
      "stateMutability": "view",
      "type": "function"
    },
    {
      "inputs": [
        {
          "internalType": "address",
          "name": "_from",
          "type": "address"
        },
        {
          "internalType": "uint256",
          "name": "_amount",
          "type": "uint256"
        }
      ],
      "name": "swapUsdtToEVH",
      "outputs": [],
      "stateMutability": "nonpayable",
      "type": "function"
    },
    {
      "inputs": [],
      "name": "usdtToken",
      "outputs": [
        {
          "internalType": "contract IERC20",
          "name": "",
          "type": "address"
        }
      ],
      "stateMutability": "view",
      "type": "function"
    },
    {
      "inputs": [
        {
          "internalType": "enum TokenPurchase.Currency",
          "name": "_currencyName",
          "type": "uint8"
        },
        {
          "internalType": "uint256",
          "name": "_amount",
          "type": "uint256"
        }
      ],
      "name": "withdraw",
      "outputs": [],
      "stateMutability": "nonpayable",
      "type": "function"
    }
  ],
  "bytecode": "0x608060405234801561001057600080fd5b5060405161170b38038061170b83398181016040528101906100329190610170565b816000806101000a81548173ffffffffffffffffffffffffffffffffffffffff021916908373ffffffffffffffffffffffffffffffffffffffff16021790555080600160006101000a81548173ffffffffffffffffffffffffffffffffffffffff021916908373ffffffffffffffffffffffffffffffffffffffff16021790555033600260006101000a81548173ffffffffffffffffffffffffffffffffffffffff021916908373ffffffffffffffffffffffffffffffffffffffff16021790555050506101b0565b600080fd5b600073ffffffffffffffffffffffffffffffffffffffff82169050919050565b600061012b82610100565b9050919050565b600061013d82610120565b9050919050565b61014d81610132565b811461015857600080fd5b50565b60008151905061016a81610144565b92915050565b60008060408385031215610187576101866100fb565b5b60006101958582860161015b565b92505060206101a68582860161015b565b9150509250929050565b61154c806101bf6000396000f3fe608060405234801561001057600080fd5b506004361061004c5760003560e01c80633f489914146100515780639781c6281461006d578063a98ad46c14610089578063ec1eeafb146100a7575b600080fd5b61006b60048036038101906100669190610c51565b6100c5565b005b61008760048036038101906100829190610cef565b610538565b005b610091610ae2565b60405161009e9190610d8e565b60405180910390f35b6100af610b08565b6040516100bc9190610d8e565b60405180910390f35b600260009054906101000a900473ffffffffffffffffffffffffffffffffffffffff1673ffffffffffffffffffffffffffffffffffffffff163373ffffffffffffffffffffffffffffffffffffffff1614610155576040517f08c379a000000000000000000000000000000000000000000000000000000000815260040161014c90610e06565b60405180910390fd5b60008111610198576040517f08c379a000000000000000000000000000000000000000000000000000000000815260040161018f90610e72565b60405180910390fd5b6000600360008460028111156101b1576101b0610e92565b5b60028111156101c3576101c2610e92565b5b815260200190815260200160002054905081811015610217576040517f08c379a000000000000000000000000000000000000000000000000000000000815260040161020e90610f0d565b60405180910390fd5b82600281111561022a57610229610e92565b5b6001600281111561023e5761023d610e92565b5b0361038b5760008054906101000a900473ffffffffffffffffffffffffffffffffffffffff1673ffffffffffffffffffffffffffffffffffffffff1663a9059cbb600260009054906101000a900473ffffffffffffffffffffffffffffffffffffffff16846040518363ffffffff1660e01b81526004016102c0929190610f4b565b6020604051808303816000875af11580156102df573d6000803e3d6000fd5b505050506040513d601f19601f820116820180604052508101906103039190610fac565b5082600281111561031757610316610e92565b5b600260009054906101000a900473ffffffffffffffffffffffffffffffffffffffff1673ffffffffffffffffffffffffffffffffffffffff167e8953c98bf4b420f992a98f3bfa55d17f4e19076029765d02cb1f9a992768688460405161037e9190610fd9565b60405180910390a36104fd565b82600281111561039e5761039d610e92565b5b6002808111156103b1576103b0610e92565b5b036104fc57600160009054906101000a900473ffffffffffffffffffffffffffffffffffffffff1673ffffffffffffffffffffffffffffffffffffffff1663a9059cbb600260009054906101000a900473ffffffffffffffffffffffffffffffffffffffff16846040518363ffffffff1660e01b8152600401610435929190610f4b565b6020604051808303816000875af1158015610454573d6000803e3d6000fd5b505050506040513d601f19601f820116820180604052508101906104789190610fac565b5082600281111561048c5761048b610e92565b5b600260009054906101000a900473ffffffffffffffffffffffffffffffffffffffff1673ffffffffffffffffffffffffffffffffffffffff167e8953c98bf4b420f992a98f3bfa55d17f4e19076029765d02cb1f9a99276868846040516104f39190610fd9565b60405180910390a35b5b6040517f08c379a000000000000000000000000000000000000000000000000000000000815260040161052f90611040565b60405180910390fd5b600260149054906101000a900460ff1615610588576040517f08c379a000000000000000000000000000000000000000000000000000000000815260040161057f906110ac565b60405180910390fd5b6001600260146101000a81548160ff021916908315150217905550600073ffffffffffffffffffffffffffffffffffffffff163373ffffffffffffffffffffffffffffffffffffffff1603610612576040517f08c379a000000000000000000000000000000000000000000000000000000000815260040161060990611118565b60405180910390fd5b60008111610655576040517f08c379a000000000000000000000000000000000000000000000000000000000815260040161064c90611184565b60405180910390fd5b6000600160009054906101000a900473ffffffffffffffffffffffffffffffffffffffff1673ffffffffffffffffffffffffffffffffffffffff166370a08231846040518263ffffffff1660e01b81526004016106b291906111a4565b602060405180830381865afa1580156106cf573d6000803e3d6000fd5b505050506040513d601f19601f820116820180604052508101906106f391906111d4565b905081811015610738576040517f08c379a000000000000000000000000000000000000000000000000000000000815260040161072f9061124d565b60405180910390fd5b6000600160009054906101000a900473ffffffffffffffffffffffffffffffffffffffff1673ffffffffffffffffffffffffffffffffffffffff1663dd62ed3e85306040518363ffffffff1660e01b815260040161079792919061126d565b602060405180830381865afa1580156107b4573d6000803e3d6000fd5b505050506040513d601f19601f820116820180604052508101906107d891906111d4565b90508281101561081d576040517f08c379a0000000000000000000000000000000000000000000000000000000008152600401610814906112e2565b60405180910390fd5b6000600160009054906101000a900473ffffffffffffffffffffffffffffffffffffffff1673ffffffffffffffffffffffffffffffffffffffff166323b872dd8630876040518463ffffffff1660e01b815260040161087e93929190611302565b6020604051808303816000875af115801561089d573d6000803e3d6000fd5b505050506040513d601f19601f820116820180604052508101906108c19190610fac565b905080610903576040517f08c379a00000000000000000000000000000000000000000000000000000000081526004016108fa90611385565b60405180910390fd5b836003600060028081111561091b5761091a610e92565b5b600281111561092d5761092c610e92565b5b8152602001908152602001600020600082825461094a91906113d4565b92505081905550600061095e856002610b2c565b905060008060009054906101000a900473ffffffffffffffffffffffffffffffffffffffff1673ffffffffffffffffffffffffffffffffffffffff1663a9059cbb88846040518363ffffffff1660e01b81526004016109be929190610f4b565b6020604051808303816000875af11580156109dd573d6000803e3d6000fd5b505050506040513d601f19601f82011682018060405250810190610a019190610fac565b90508015610abe57816003600060016002811115610a2257610a21610e92565b5b6002811115610a3457610a33610e92565b5b81526020019081526020016000206000828254610a5191906113d4565b925050819055503073ffffffffffffffffffffffffffffffffffffffff168773ffffffffffffffffffffffffffffffffffffffff167ff936e5e0223c6f3d59c5cad7723aaa9b2b2d68a54065aed03ad5e38675f1f30688604051610ab59190610fd9565b60405180910390a35b50505050506000600260146101000a81548160ff0219169083151502179055505050565b600160009054906101000a900473ffffffffffffffffffffffffffffffffffffffff1681565b60008054906101000a900473ffffffffffffffffffffffffffffffffffffffff1681565b6000600280811115610b4157610b40610e92565b5b826002811115610b5457610b53610e92565b5b03610b6e5761064083610b679190611408565b9050610beb565b60016002811115610b8257610b81610e92565b5b826002811115610b9557610b94610e92565b5b03610baf5761064083610ba89190611479565b9050610bea565b6040517f08c379a0000000000000000000000000000000000000000000000000000000008152600401610be1906114f6565b60405180910390fd5b5b92915050565b600080fd5b60038110610c0357600080fd5b50565b600081359050610c1581610bf6565b92915050565b6000819050919050565b610c2e81610c1b565b8114610c3957600080fd5b50565b600081359050610c4b81610c25565b92915050565b60008060408385031215610c6857610c67610bf1565b5b6000610c7685828601610c06565b9250506020610c8785828601610c3c565b9150509250929050565b600073ffffffffffffffffffffffffffffffffffffffff82169050919050565b6000610cbc82610c91565b9050919050565b610ccc81610cb1565b8114610cd757600080fd5b50565b600081359050610ce981610cc3565b92915050565b60008060408385031215610d0657610d05610bf1565b5b6000610d1485828601610cda565b9250506020610d2585828601610c3c565b9150509250929050565b6000819050919050565b6000610d54610d4f610d4a84610c91565b610d2f565b610c91565b9050919050565b6000610d6682610d39565b9050919050565b6000610d7882610d5b565b9050919050565b610d8881610d6d565b82525050565b6000602082019050610da36000830184610d7f565b92915050565b600082825260208201905092915050565b7f4f6e6c79206f776e65722063616e206163636573730000000000000000000000600082015250565b6000610df0601583610da9565b9150610dfb82610dba565b602082019050919050565b60006020820190508181036000830152610e1f81610de3565b9050919050565b7f62616c616e6365206973206c6573730000000000000000000000000000000000600082015250565b6000610e5c600f83610da9565b9150610e6782610e26565b602082019050919050565b60006020820190508181036000830152610e8b81610e4f565b9050919050565b7f4e487b7100000000000000000000000000000000000000000000000000000000600052602160045260246000fd5b7f496e73756666696369656e7420636f6e74726163742062616c616e6365000000600082015250565b6000610ef7601d83610da9565b9150610f0282610ec1565b602082019050919050565b60006020820190508181036000830152610f2681610eea565b9050919050565b610f3681610cb1565b82525050565b610f4581610c1b565b82525050565b6000604082019050610f606000830185610f2d565b610f6d6020830184610f3c565b9392505050565b60008115159050919050565b610f8981610f74565b8114610f9457600080fd5b50565b600081519050610fa681610f80565b92915050565b600060208284031215610fc257610fc1610bf1565b5b6000610fd084828501610f97565b91505092915050565b6000602082019050610fee6000830184610f3c565b92915050565b7f546f6b656e206e6f7420646566696e6564000000000000000000000000000000600082015250565b600061102a601183610da9565b915061103582610ff4565b602082019050919050565b600060208201905081810360008301526110598161101d565b9050919050565b7f5265656e7472616e6379206e6f7420616c6c6f77656400000000000000000000600082015250565b6000611096601683610da9565b91506110a182611060565b602082019050919050565b600060208201905081810360008301526110c581611089565b9050919050565b7f5a65726f206e6f7420616c6c6f77656400000000000000000000000000000000600082015250565b6000611102601083610da9565b915061110d826110cc565b602082019050919050565b60006020820190508181036000830152611131816110f5565b9050919050565b7f43616e6e6f742073776170207a65726f20616d6f756e74000000000000000000600082015250565b600061116e601783610da9565b915061117982611138565b602082019050919050565b6000602082019050818103600083015261119d81611161565b9050919050565b60006020820190506111b96000830184610f2d565b92915050565b6000815190506111ce81610c25565b92915050565b6000602082840312156111ea576111e9610bf1565b5b60006111f8848285016111bf565b91505092915050565b7f596f75722062616c616e6365206973206e6f7420656e6f756768000000000000600082015250565b6000611237601a83610da9565b915061124282611201565b602082019050919050565b600060208201905081810360008301526112668161122a565b9050919050565b60006040820190506112826000830185610f2d565b61128f6020830184610f2d565b9392505050565b7f546f6b656e20616c6c6f77616e636520746f6f206c6f77000000000000000000600082015250565b60006112cc601783610da9565b91506112d782611296565b602082019050919050565b600060208201905081810360008301526112fb816112bf565b9050919050565b60006060820190506113176000830186610f2d565b6113246020830185610f2d565b6113316040830184610f3c565b949350505050565b7f457865637574696f6e206661696c656400000000000000000000000000000000600082015250565b600061136f601083610da9565b915061137a82611339565b602082019050919050565b6000602082019050818103600083015261139e81611362565b9050919050565b7f4e487b7100000000000000000000000000000000000000000000000000000000600052601160045260246000fd5b60006113df82610c1b565b91506113ea83610c1b565b9250828201905080821115611402576114016113a5565b5b92915050565b600061141382610c1b565b915061141e83610c1b565b925082820261142c81610c1b565b91508282048414831517611443576114426113a5565b5b5092915050565b7f4e487b7100000000000000000000000000000000000000000000000000000000600052601260045260246000fd5b600061148482610c1b565b915061148f83610c1b565b92508261149f5761149e61144a565b5b828204905092915050565b7f556e737570706f727465642063757272656e6379000000000000000000000000600082015250565b60006114e0601483610da9565b91506114eb826114aa565b602082019050919050565b6000602082019050818103600083015261150f816114d3565b905091905056fea2646970667358221220b7662199b3665a2728db3b6d05ea6b424e68dca6ae4e7debabb61a51d737a38564736f6c634300081b0033",
  "linkReferences": {},
  "deployedLinkReferences": {}
}