{
  "_format": "hh-sol-artifact-1",
  "contractName": "EventHub",
  "sourceName": "contracts/EventHub.sol",
  "abi": [
    {
      "inputs": [
        {
          "internalType": "contract IERC20",
          "name": "_eventHubToken",
          "type": "address"
        },
        {
          "internalType": "contract IEventProposal",
          "name": "_eventProposal",
          "type": "address"
        },
        {
          "internalType": "contract IEVHTokenPurchase",
          "name": "_eVHTokenPurchase",
          "type": "address"
        }
      ],
      "stateMutability": "nonpayable",
      "type": "constructor"
    },
    {
      "anonymous": false,
      "inputs": [
        {
          "indexed": false,
          "internalType": "uint256",
          "name": "eventIndex",
          "type": "uint256"
        }
      ],
      "name": "EventCancelled",
      "type": "event"
    },
    {
      "anonymous": false,
      "inputs": [
        {
          "indexed": true,
          "internalType": "string",
          "name": "title",
          "type": "string"
        },
        {
          "indexed": false,
          "internalType": "uint256",
          "name": "date",
          "type": "uint256"
        }
      ],
      "name": "EventCreated",
      "type": "event"
    },
    {
      "anonymous": false,
      "inputs": [
        {
          "indexed": true,
          "internalType": "address",
          "name": "user",
          "type": "address"
        },
        {
          "indexed": false,
          "internalType": "uint256",
          "name": "eventIndex",
          "type": "uint256"
        }
      ],
      "name": "EventJoined",
      "type": "event"
    },
    {
      "anonymous": false,
      "inputs": [
        {
          "indexed": true,
          "internalType": "address",
          "name": "buyer",
          "type": "address"
        },
        {
          "indexed": false,
          "internalType": "uint256",
          "name": "amount",
          "type": "uint256"
        }
      ],
      "name": "TokensPurchased",
      "type": "event"
    },
    {
      "inputs": [
        {
          "internalType": "uint256",
          "name": "",
          "type": "uint256"
        }
      ],
      "name": "allEvents",
      "outputs": [
        {
          "internalType": "string",
          "name": "title",
          "type": "string"
        },
        {
          "internalType": "string",
          "name": "description",
          "type": "string"
        },
        {
          "internalType": "uint256",
          "name": "date",
          "type": "uint256"
        },
        {
          "internalType": "uint256",
          "name": "tokenRequirement",
          "type": "uint256"
        },
        {
          "internalType": "uint256",
          "name": "attendeeLimit",
          "type": "uint256"
        },
        {
          "internalType": "uint256",
          "name": "attendeeCount",
          "type": "uint256"
        },
        {
          "internalType": "bool",
          "name": "isActive",
          "type": "bool"
        }
      ],
      "stateMutability": "view",
      "type": "function"
    },
    {
      "inputs": [
        {
          "internalType": "uint8",
          "name": "_index",
          "type": "uint8"
        }
      ],
      "name": "cancelEvent",
      "outputs": [],
      "stateMutability": "nonpayable",
      "type": "function"
    },
    {
      "inputs": [
        {
          "internalType": "string",
          "name": "_title",
          "type": "string"
        },
        {
          "internalType": "string",
          "name": "_description",
          "type": "string"
        },
        {
          "internalType": "uint256",
          "name": "_date",
          "type": "uint256"
        },
        {
          "internalType": "uint256",
          "name": "_tokenRequirement",
          "type": "uint256"
        },
        {
          "internalType": "uint256",
          "name": "_attendeeLimit",
          "type": "uint256"
        }
      ],
      "name": "createEvent",
      "outputs": [],
      "stateMutability": "nonpayable",
      "type": "function"
    },
    {
      "inputs": [
        {
          "internalType": "string",
          "name": "_name",
          "type": "string"
        },
        {
          "internalType": "string",
          "name": "_desc",
          "type": "string"
        },
        {
          "internalType": "uint16",
          "name": "_quorum",
          "type": "uint16"
        }
      ],
      "name": "createEventHubProposal",
      "outputs": [],
      "stateMutability": "nonpayable",
      "type": "function"
    },
    {
      "inputs": [],
      "name": "eVHTokenPurchase",
      "outputs": [
        {
          "internalType": "contract IEVHTokenPurchase",
          "name": "",
          "type": "address"
        }
      ],
      "stateMutability": "view",
      "type": "function"
    },
    {
      "inputs": [],
      "name": "eventHubToken",
      "outputs": [
        {
          "internalType": "contract IERC20",
          "name": "",
          "type": "address"
        }
      ],
      "stateMutability": "view",
      "type": "function"
    },
    {
      "inputs": [],
      "name": "eventProposal",
      "outputs": [
        {
          "internalType": "contract IEventProposal",
          "name": "",
          "type": "address"
        }
      ],
      "stateMutability": "view",
      "type": "function"
    },
    {
      "inputs": [],
      "name": "getAllEventProposals",
      "outputs": [
        {
          "components": [
            {
              "internalType": "string",
              "name": "name",
              "type": "string"
            },
            {
              "internalType": "string",
              "name": "description",
              "type": "string"
            },
            {
              "internalType": "uint16",
              "name": "voteCount",
              "type": "uint16"
            },
            {
              "internalType": "address[]",
              "name": "voters",
              "type": "address[]"
            },
            {
              "internalType": "uint16",
              "name": "quorum",
              "type": "uint16"
            },
            {
              "internalType": "enum PropsLibrary.PropsStatus",
              "name": "status",
              "type": "uint8"
            }
          ],
          "internalType": "struct PropsLibrary.Proposal[]",
          "name": "",
          "type": "tuple[]"
        }
      ],
      "stateMutability": "view",
      "type": "function"
    },
    {
      "inputs": [],
      "name": "getAllEvents",
      "outputs": [
        {
          "components": [
            {
              "internalType": "string",
              "name": "title",
              "type": "string"
            },
            {
              "internalType": "string",
              "name": "description",
              "type": "string"
            },
            {
              "internalType": "uint256",
              "name": "date",
              "type": "uint256"
            },
            {
              "internalType": "uint256",
              "name": "tokenRequirement",
              "type": "uint256"
            },
            {
              "internalType": "uint256",
              "name": "attendeeLimit",
              "type": "uint256"
            },
            {
              "internalType": "uint256",
              "name": "attendeeCount",
              "type": "uint256"
            },
            {
              "internalType": "address[]",
              "name": "attendees",
              "type": "address[]"
            },
            {
              "internalType": "bool",
              "name": "isActive",
              "type": "bool"
            }
          ],
          "internalType": "struct EventHub.Event[]",
          "name": "",
          "type": "tuple[]"
        }
      ],
      "stateMutability": "view",
      "type": "function"
    },
    {
      "inputs": [
        {
          "internalType": "uint8",
          "name": "_index",
          "type": "uint8"
        }
      ],
      "name": "getAnEvent",
      "outputs": [
        {
          "components": [
            {
              "internalType": "string",
              "name": "title",
              "type": "string"
            },
            {
              "internalType": "string",
              "name": "description",
              "type": "string"
            },
            {
              "internalType": "uint256",
              "name": "date",
              "type": "uint256"
            },
            {
              "internalType": "uint256",
              "name": "tokenRequirement",
              "type": "uint256"
            },
            {
              "internalType": "uint256",
              "name": "attendeeLimit",
              "type": "uint256"
            },
            {
              "internalType": "uint256",
              "name": "attendeeCount",
              "type": "uint256"
            },
            {
              "internalType": "address[]",
              "name": "attendees",
              "type": "address[]"
            },
            {
              "internalType": "bool",
              "name": "isActive",
              "type": "bool"
            }
          ],
          "internalType": "struct EventHub.Event",
          "name": "",
          "type": "tuple"
        }
      ],
      "stateMutability": "view",
      "type": "function"
    },
    {
      "inputs": [
        {
          "internalType": "uint8",
          "name": "_index",
          "type": "uint8"
        }
      ],
      "name": "getAnEventProposal",
      "outputs": [
        {
          "internalType": "string",
          "name": "",
          "type": "string"
        },
        {
          "internalType": "string",
          "name": "",
          "type": "string"
        },
        {
          "internalType": "uint16",
          "name": "",
          "type": "uint16"
        },
        {
          "internalType": "address[]",
          "name": "voters_",
          "type": "address[]"
        },
        {
          "internalType": "uint16",
          "name": "",
          "type": "uint16"
        },
        {
          "internalType": "enum PropsLibrary.PropsStatus",
          "name": "status_",
          "type": "uint8"
        }
      ],
      "stateMutability": "view",
      "type": "function"
    },
    {
      "inputs": [
        {
          "internalType": "uint8",
          "name": "_index",
          "type": "uint8"
        }
      ],
      "name": "joinEvent",
      "outputs": [],
      "stateMutability": "nonpayable",
      "type": "function"
    },
    {
      "inputs": [],
      "name": "owner",
      "outputs": [
        {
          "internalType": "address",
          "name": "",
          "type": "address"
        }
      ],
      "stateMutability": "view",
      "type": "function"
    },
    {
      "inputs": [
        {
          "internalType": "uint256",
          "name": "_amount",
          "type": "uint256"
        }
      ],
      "name": "purchaseEVHToken",
      "outputs": [],
      "stateMutability": "nonpayable",
      "type": "function"
    },
    {
      "inputs": [
        {
          "internalType": "uint8",
          "name": "_index",
          "type": "uint8"
        }
      ],
      "name": "voteOnEventProposal",
      "outputs": [],
      "stateMutability": "nonpayable",
      "type": "function"
    }
  ],
  "bytecode": "0x608060405234801561001057600080fd5b50604051613b74380380613b748339818101604052810190610032919061022e565b336000806101000a81548173ffffffffffffffffffffffffffffffffffffffff021916908373ffffffffffffffffffffffffffffffffffffffff16021790555082600160006101000a81548173ffffffffffffffffffffffffffffffffffffffff021916908373ffffffffffffffffffffffffffffffffffffffff16021790555081600260006101000a81548173ffffffffffffffffffffffffffffffffffffffff021916908373ffffffffffffffffffffffffffffffffffffffff16021790555080600360006101000a81548173ffffffffffffffffffffffffffffffffffffffff021916908373ffffffffffffffffffffffffffffffffffffffff160217905550505050610281565b600080fd5b600073ffffffffffffffffffffffffffffffffffffffff82169050919050565b600061016d82610142565b9050919050565b600061017f82610162565b9050919050565b61018f81610174565b811461019a57600080fd5b50565b6000815190506101ac81610186565b92915050565b60006101bd82610162565b9050919050565b6101cd816101b2565b81146101d857600080fd5b50565b6000815190506101ea816101c4565b92915050565b60006101fb82610162565b9050919050565b61020b816101f0565b811461021657600080fd5b50565b60008151905061022881610202565b92915050565b6000806000606084860312156102475761024661013d565b5b60006102558682870161019d565b9350506020610266868287016101db565b925050604061027786828701610219565b9150509250925092565b6138e4806102906000396000f3fe608060405234801561001057600080fd5b50600436106100f55760003560e01c80638da5cb5b11610097578063e6f4a74011610066578063e6f4a7401461027b578063ec1eeafb14610299578063f6952c81146102b7578063f8f1e143146102d3576100f5565b80638da5cb5b146101f3578063975f734a14610211578063aa4e96ab1461022d578063c27a500d1461025d576100f5565b80634f5be18d116100d35780634f5be18d14610168578063645112281461018457806373cfe3d0146101a257806387c83012146101be576100f5565b80632ca9d95c146100fa5780633bec5cff146101165780633c2fc56c1461014c575b600080fd5b610114600480360381019061010f9190611c7e565b6102f1565b005b610130600480360381019061012b9190611ce1565b6105f8565b6040516101439796959493929190611dc8565b60405180910390f35b61016660048036038101906101619190611f7a565b610767565b005b610182600480360381019061017d9190611c7e565b6109d4565b005b61018c610dd6565b6040516101999190612354565b60405180910390f35b6101bc60048036038101906101b79190611ce1565b610f70565b005b6101d860048036038101906101d39190611c7e565b6111e0565b6040516101ea96959493929190612403565b60405180910390f35b6101fb6112a0565b6040516102089190612488565b60405180910390f35b61022b60048036038101906102269190611c7e565b6112c4565b005b61024760048036038101906102429190611c7e565b6114bf565b604051610254919061257f565b60405180910390f35b610265611777565b6040516102729190612721565b60405180910390f35b6102836119cc565b60405161029091906127a2565b60405180910390f35b6102a16119f2565b6040516102ae91906127de565b60405180910390f35b6102d160048036038101906102cc9190612825565b611a18565b005b6102db611b1d565b6040516102e891906128d1565b60405180910390f35b6004805490508160ff161061033b576040517f08c379a000000000000000000000000000000000000000000000000000000000815260040161033290612938565b60405180910390fd5b600060048260ff168154811061035457610353612958565b5b906000526020600020906008020190508060070160009054906101000a900460ff166103b5576040517f08c379a00000000000000000000000000000000000000000000000000000000081526004016103ac906129d3565b60405180910390fd5b428160020154116103fb576040517f08c379a00000000000000000000000000000000000000000000000000000000081526004016103f290612a3f565b60405180910390fd5b8060040154816005015410610445576040517f08c379a000000000000000000000000000000000000000000000000000000000815260040161043c90612aab565b60405180910390fd5b8060030154600160009054906101000a900473ffffffffffffffffffffffffffffffffffffffff1673ffffffffffffffffffffffffffffffffffffffff166370a08231336040518263ffffffff1660e01b81526004016104a59190612488565b602060405180830381865afa1580156104c2573d6000803e3d6000fd5b505050506040513d601f19601f820116820180604052508101906104e69190612ae0565b1015610527576040517f08c379a000000000000000000000000000000000000000000000000000000000815260040161051e90612b59565b60405180910390fd5b80600601339080600181540180825580915050600190039060005260206000200160009091909190916101000a81548173ffffffffffffffffffffffffffffffffffffffff021916908373ffffffffffffffffffffffffffffffffffffffff1602179055508060050160008154809291906105a190612ba8565b91905055503373ffffffffffffffffffffffffffffffffffffffff167f7850181cf9c4914a1e6dc81969728f83eed741fec646ce310267edc88fc53b2f836040516105ec9190612c21565b60405180910390a25050565b6004818154811061060857600080fd5b906000526020600020906008020160009150905080600001805461062b90612c6b565b80601f016020809104026020016040519081016040528092919081815260200182805461065790612c6b565b80156106a45780601f10610679576101008083540402835291602001916106a4565b820191906000526020600020905b81548152906001019060200180831161068757829003601f168201915b5050505050908060010180546106b990612c6b565b80601f01602080910402602001604051908101604052809291908181526020018280546106e590612c6b565b80156107325780601f1061070757610100808354040283529160200191610732565b820191906000526020600020905b81548152906001019060200180831161071557829003601f168201915b5050505050908060020154908060030154908060040154908060050154908060070160009054906101000a900460ff16905087565b600073ffffffffffffffffffffffffffffffffffffffff163373ffffffffffffffffffffffffffffffffffffffff16036107d6576040517f08c379a00000000000000000000000000000000000000000000000000000000081526004016107cd90612ce8565b60405180910390fd5b60008054906101000a900473ffffffffffffffffffffffffffffffffffffffff1673ffffffffffffffffffffffffffffffffffffffff163373ffffffffffffffffffffffffffffffffffffffff1614610864576040517f08c379a000000000000000000000000000000000000000000000000000000000815260040161085b90612d54565b60405180910390fd5b61086c611b43565b858160000181905250848160200181905250834261088a9190612d74565b816040018181525050828160600181815250508181608001818152505060018160e0019015159081151581525050600481908060018154018082558091505060019003906000526020600020906008020160009091909190915060008201518160000190816108f99190612f4a565b50602082015181600101908161090f9190612f4a565b5060408201518160020155606082015181600301556080820151816004015560a0820151816005015560c0820151816006019080519060200190610954929190611b8a565b5060e08201518160070160006101000a81548160ff021916908315150217905550505080600001516040516109899190613058565b60405180910390207f747e1e732fb8b14a9d37ef77dfbc2ee40ccb2fe8abd343f0511bb668f9b51aef82604001516040516109c4919061306f565b60405180910390a2505050505050565b600073ffffffffffffffffffffffffffffffffffffffff163373ffffffffffffffffffffffffffffffffffffffff1603610a43576040517f08c379a0000000000000000000000000000000000000000000000000000000008152600401610a3a906130d6565b60405180910390fd5b600260009054906101000a900473ffffffffffffffffffffffffffffffffffffffff1673ffffffffffffffffffffffffffffffffffffffff1663cceb68f56040518163ffffffff1660e01b8152600401600060405180830381865afa158015610ab0573d6000803e3d6000fd5b505050506040513d6000823e3d601f19601f82011682018060405250810190610ad99190613473565b518160ff1610610b1e576040517f08c379a0000000000000000000000000000000000000000000000000000000008152600401610b1590613508565b60405180910390fd5b6000600160009054906101000a900473ffffffffffffffffffffffffffffffffffffffff1673ffffffffffffffffffffffffffffffffffffffff166370a08231336040518263ffffffff1660e01b8152600401610b7b9190612488565b602060405180830381865afa158015610b98573d6000803e3d6000fd5b505050506040513d601f19601f82011682018060405250810190610bbc9190612ae0565b11610bfc576040517f08c379a0000000000000000000000000000000000000000000000000000000008152600401610bf390613574565b60405180910390fd5b69152d02c7e14af6800000600160009054906101000a900473ffffffffffffffffffffffffffffffffffffffff1673ffffffffffffffffffffffffffffffffffffffff166370a08231336040518263ffffffff1660e01b8152600401610c629190612488565b602060405180830381865afa158015610c7f573d6000803e3d6000fd5b505050506040513d601f19601f82011682018060405250810190610ca39190612ae0565b1115610d4057600260009054906101000a900473ffffffffffffffffffffffffffffffffffffffff1673ffffffffffffffffffffffffffffffffffffffff1663ed22d83c826001336040518463ffffffff1660e01b8152600401610d09939291906135a3565b600060405180830381600087803b158015610d2357600080fd5b505af1158015610d37573d6000803e3d6000fd5b50505050610dd3565b600260009054906101000a900473ffffffffffffffffffffffffffffffffffffffff1673ffffffffffffffffffffffffffffffffffffffff1663ed22d83c826000336040518463ffffffff1660e01b8152600401610da0939291906135a3565b600060405180830381600087803b158015610dba57600080fd5b505af1158015610dce573d6000803e3d6000fd5b505050505b50565b6060600073ffffffffffffffffffffffffffffffffffffffff163373ffffffffffffffffffffffffffffffffffffffff1603610e47576040517f08c379a0000000000000000000000000000000000000000000000000000000008152600401610e3e90612ce8565b60405180910390fd5b60008054906101000a900473ffffffffffffffffffffffffffffffffffffffff1673ffffffffffffffffffffffffffffffffffffffff163373ffffffffffffffffffffffffffffffffffffffff1614610ed5576040517f08c379a0000000000000000000000000000000000000000000000000000000008152600401610ecc90612d54565b60405180910390fd5b600260009054906101000a900473ffffffffffffffffffffffffffffffffffffffff1673ffffffffffffffffffffffffffffffffffffffff1663cceb68f56040518163ffffffff1660e01b8152600401600060405180830381865afa158015610f42573d6000803e3d6000fd5b505050506040513d6000823e3d601f19601f82011682018060405250810190610f6b9190613473565b905090565b600073ffffffffffffffffffffffffffffffffffffffff163373ffffffffffffffffffffffffffffffffffffffff1603610fdf576040517f08c379a0000000000000000000000000000000000000000000000000000000008152600401610fd6906130d6565b60405180910390fd5b60008111611022576040517f08c379a00000000000000000000000000000000000000000000000000000000081526004016110199061364c565b60405180910390fd5b600360009054906101000a900473ffffffffffffffffffffffffffffffffffffffff1673ffffffffffffffffffffffffffffffffffffffff16639781c62833836040518363ffffffff1660e01b815260040161107f92919061366c565b600060405180830381600087803b15801561109957600080fd5b505af11580156110ad573d6000803e3d6000fd5b505050506000600160009054906101000a900473ffffffffffffffffffffffffffffffffffffffff1673ffffffffffffffffffffffffffffffffffffffff166370a08231336040518263ffffffff1660e01b815260040161110e9190612488565b602060405180830381865afa15801561112b573d6000803e3d6000fd5b505050506040513d601f19601f8201168201806040525081019061114f9190612ae0565b1161118f576040517f08c379a0000000000000000000000000000000000000000000000000000000008152600401611186906136e1565b60405180910390fd5b3373ffffffffffffffffffffffffffffffffffffffff167f8f28852646c20cc973d3a8218f7eefed58c25c909f78f0265af4818c3d4dc271826040516111d5919061306f565b60405180910390a250565b60608060006060600080600260009054906101000a900473ffffffffffffffffffffffffffffffffffffffff1673ffffffffffffffffffffffffffffffffffffffff166367d7a419886040518263ffffffff1660e01b81526004016112459190613701565b600060405180830381865afa158015611262573d6000803e3d6000fd5b505050506040513d6000823e3d601f19601f8201168201806040525081019061128b919061371c565b95509550955095509550955091939550919395565b60008054906101000a900473ffffffffffffffffffffffffffffffffffffffff1681565b600073ffffffffffffffffffffffffffffffffffffffff163373ffffffffffffffffffffffffffffffffffffffff1603611333576040517f08c379a000000000000000000000000000000000000000000000000000000000815260040161132a90612ce8565b60405180910390fd5b60008054906101000a900473ffffffffffffffffffffffffffffffffffffffff1673ffffffffffffffffffffffffffffffffffffffff163373ffffffffffffffffffffffffffffffffffffffff16146113c1576040517f08c379a00000000000000000000000000000000000000000000000000000000081526004016113b890612d54565b60405180910390fd5b600073ffffffffffffffffffffffffffffffffffffffff163373ffffffffffffffffffffffffffffffffffffffff16036113fa57600080fd5b6004805490508160ff1610611444576040517f08c379a000000000000000000000000000000000000000000000000000000000815260040161143b90613849565b60405180910390fd5b600060048260ff168154811061145d5761145c612958565b5b906000526020600020906008020160070160006101000a81548160ff0219169083151502179055507fdc3cb569b066460f4a22dffa05317bdcce5d3826382ed49a21f13e5fa2063d39816040516114b49190612c21565b60405180910390a150565b6114c7611b43565b600073ffffffffffffffffffffffffffffffffffffffff163373ffffffffffffffffffffffffffffffffffffffff160361150057600080fd5b6004805490508260ff161061154a576040517f08c379a000000000000000000000000000000000000000000000000000000000815260040161154190613849565b60405180910390fd5b60048260ff168154811061156157611560612958565b5b90600052602060002090600802016040518061010001604052908160008201805461158b90612c6b565b80601f01602080910402602001604051908101604052809291908181526020018280546115b790612c6b565b80156116045780601f106115d957610100808354040283529160200191611604565b820191906000526020600020905b8154815290600101906020018083116115e757829003601f168201915b5050505050815260200160018201805461161d90612c6b565b80601f016020809104026020016040519081016040528092919081815260200182805461164990612c6b565b80156116965780601f1061166b57610100808354040283529160200191611696565b820191906000526020600020905b81548152906001019060200180831161167957829003601f168201915b50505050508152602001600282015481526020016003820154815260200160048201548152602001600582015481526020016006820180548060200260200160405190810160405280929190818152602001828054801561174c57602002820191906000526020600020905b8160009054906101000a900473ffffffffffffffffffffffffffffffffffffffff1673ffffffffffffffffffffffffffffffffffffffff1681526020019060010190808311611702575b505050505081526020016007820160009054906101000a900460ff1615151515815250509050919050565b60606004805480602002602001604051908101604052809291908181526020016000905b828210156119c35783829060005260206000209060080201604051806101000160405290816000820180546117cf90612c6b565b80601f01602080910402602001604051908101604052809291908181526020018280546117fb90612c6b565b80156118485780601f1061181d57610100808354040283529160200191611848565b820191906000526020600020905b81548152906001019060200180831161182b57829003601f168201915b5050505050815260200160018201805461186190612c6b565b80601f016020809104026020016040519081016040528092919081815260200182805461188d90612c6b565b80156118da5780601f106118af576101008083540402835291602001916118da565b820191906000526020600020905b8154815290600101906020018083116118bd57829003601f168201915b50505050508152602001600282015481526020016003820154815260200160048201548152602001600582015481526020016006820180548060200260200160405190810160405280929190818152602001828054801561199057602002820191906000526020600020905b8160009054906101000a900473ffffffffffffffffffffffffffffffffffffffff1673ffffffffffffffffffffffffffffffffffffffff1681526020019060010190808311611946575b505050505081526020016007820160009054906101000a900460ff1615151515815250508152602001906001019061179b565b50505050905090565b600260009054906101000a900473ffffffffffffffffffffffffffffffffffffffff1681565b600160009054906101000a900473ffffffffffffffffffffffffffffffffffffffff1681565b600073ffffffffffffffffffffffffffffffffffffffff163373ffffffffffffffffffffffffffffffffffffffff1603611a87576040517f08c379a0000000000000000000000000000000000000000000000000000000008152600401611a7e906130d6565b60405180910390fd5b600260009054906101000a900473ffffffffffffffffffffffffffffffffffffffff1673ffffffffffffffffffffffffffffffffffffffff1663bcf2e0268484846040518463ffffffff1660e01b8152600401611ae693929190613869565b600060405180830381600087803b158015611b0057600080fd5b505af1158015611b14573d6000803e3d6000fd5b50505050505050565b600360009054906101000a900473ffffffffffffffffffffffffffffffffffffffff1681565b604051806101000160405280606081526020016060815260200160008152602001600081526020016000815260200160008152602001606081526020016000151581525090565b828054828255906000526020600020908101928215611c03579160200282015b82811115611c025782518260006101000a81548173ffffffffffffffffffffffffffffffffffffffff021916908373ffffffffffffffffffffffffffffffffffffffff16021790555091602001919060010190611baa565b5b509050611c109190611c14565b5090565b5b80821115611c2d576000816000905550600101611c15565b5090565b6000604051905090565b600080fd5b600080fd5b600060ff82169050919050565b611c5b81611c45565b8114611c6657600080fd5b50565b600081359050611c7881611c52565b92915050565b600060208284031215611c9457611c93611c3b565b5b6000611ca284828501611c69565b91505092915050565b6000819050919050565b611cbe81611cab565b8114611cc957600080fd5b50565b600081359050611cdb81611cb5565b92915050565b600060208284031215611cf757611cf6611c3b565b5b6000611d0584828501611ccc565b91505092915050565b600081519050919050565b600082825260208201905092915050565b60005b83811015611d48578082015181840152602081019050611d2d565b60008484015250505050565b6000601f19601f8301169050919050565b6000611d7082611d0e565b611d7a8185611d19565b9350611d8a818560208601611d2a565b611d9381611d54565b840191505092915050565b611da781611cab565b82525050565b60008115159050919050565b611dc281611dad565b82525050565b600060e0820190508181036000830152611de2818a611d65565b90508181036020830152611df68189611d65565b9050611e056040830188611d9e565b611e126060830187611d9e565b611e1f6080830186611d9e565b611e2c60a0830185611d9e565b611e3960c0830184611db9565b98975050505050505050565b600080fd5b600080fd5b7f4e487b7100000000000000000000000000000000000000000000000000000000600052604160045260246000fd5b611e8782611d54565b810181811067ffffffffffffffff82111715611ea657611ea5611e4f565b5b80604052505050565b6000611eb9611c31565b9050611ec58282611e7e565b919050565b600067ffffffffffffffff821115611ee557611ee4611e4f565b5b611eee82611d54565b9050602081019050919050565b82818337600083830152505050565b6000611f1d611f1884611eca565b611eaf565b905082815260208101848484011115611f3957611f38611e4a565b5b611f44848285611efb565b509392505050565b600082601f830112611f6157611f60611e45565b5b8135611f71848260208601611f0a565b91505092915050565b600080600080600060a08688031215611f9657611f95611c3b565b5b600086013567ffffffffffffffff811115611fb457611fb3611c40565b5b611fc088828901611f4c565b955050602086013567ffffffffffffffff811115611fe157611fe0611c40565b5b611fed88828901611f4c565b9450506040611ffe88828901611ccc565b935050606061200f88828901611ccc565b925050608061202088828901611ccc565b9150509295509295909350565b600081519050919050565b600082825260208201905092915050565b6000819050602082019050919050565b600082825260208201905092915050565b600061207582611d0e565b61207f8185612059565b935061208f818560208601611d2a565b61209881611d54565b840191505092915050565b600061ffff82169050919050565b6120ba816120a3565b82525050565b600081519050919050565b600082825260208201905092915050565b6000819050602082019050919050565b600073ffffffffffffffffffffffffffffffffffffffff82169050919050565b6000612117826120ec565b9050919050565b6121278161210c565b82525050565b6000612139838361211e565b60208301905092915050565b6000602082019050919050565b600061215d826120c0565b61216781856120cb565b9350612172836120dc565b8060005b838110156121a357815161218a888261212d565b975061219583612145565b925050600181019050612176565b5085935050505092915050565b7f4e487b7100000000000000000000000000000000000000000000000000000000600052602160045260246000fd5b600481106121f0576121ef6121b0565b5b50565b6000819050612201826121df565b919050565b6000612211826121f3565b9050919050565b61222181612206565b82525050565b600060c0830160008301518482036000860152612244828261206a565b9150506020830151848203602086015261225e828261206a565b915050604083015161227360408601826120b1565b506060830151848203606086015261228b8282612152565b91505060808301516122a060808601826120b1565b5060a08301516122b360a0860182612218565b508091505092915050565b60006122ca8383612227565b905092915050565b6000602082019050919050565b60006122ea8261202d565b6122f48185612038565b93508360208202850161230685612049565b8060005b85811015612342578484038952815161232385826122be565b945061232e836122d2565b925060208a0199505060018101905061230a565b50829750879550505050505092915050565b6000602082019050818103600083015261236e81846122df565b905092915050565b61237f816120a3565b82525050565b600082825260208201905092915050565b60006123a1826120c0565b6123ab8185612385565b93506123b6836120dc565b8060005b838110156123e75781516123ce888261212d565b97506123d983612145565b9250506001810190506123ba565b5085935050505092915050565b6123fd81612206565b82525050565b600060c082019050818103600083015261241d8189611d65565b905081810360208301526124318188611d65565b90506124406040830187612376565b81810360608301526124528186612396565b90506124616080830185612376565b61246e60a08301846123f4565b979650505050505050565b6124828161210c565b82525050565b600060208201905061249d6000830184612479565b92915050565b6124ac81611cab565b82525050565b6124bb81611dad565b82525050565b60006101008301600083015184820360008601526124df828261206a565b915050602083015184820360208601526124f9828261206a565b915050604083015161250e60408601826124a3565b50606083015161252160608601826124a3565b50608083015161253460808601826124a3565b5060a083015161254760a08601826124a3565b5060c083015184820360c086015261255f8282612152565b91505060e083015161257460e08601826124b2565b508091505092915050565b6000602082019050818103600083015261259981846124c1565b905092915050565b600081519050919050565b600082825260208201905092915050565b6000819050602082019050919050565b60006101008301600083015184820360008601526125eb828261206a565b91505060208301518482036020860152612605828261206a565b915050604083015161261a60408601826124a3565b50606083015161262d60608601826124a3565b50608083015161264060808601826124a3565b5060a083015161265360a08601826124a3565b5060c083015184820360c086015261266b8282612152565b91505060e083015161268060e08601826124b2565b508091505092915050565b600061269783836125cd565b905092915050565b6000602082019050919050565b60006126b7826125a1565b6126c181856125ac565b9350836020820285016126d3856125bd565b8060005b8581101561270f57848403895281516126f0858261268b565b94506126fb8361269f565b925060208a019950506001810190506126d7565b50829750879550505050505092915050565b6000602082019050818103600083015261273b81846126ac565b905092915050565b6000819050919050565b600061276861276361275e846120ec565b612743565b6120ec565b9050919050565b600061277a8261274d565b9050919050565b600061278c8261276f565b9050919050565b61279c81612781565b82525050565b60006020820190506127b76000830184612793565b92915050565b60006127c88261276f565b9050919050565b6127d8816127bd565b82525050565b60006020820190506127f360008301846127cf565b92915050565b612802816120a3565b811461280d57600080fd5b50565b60008135905061281f816127f9565b92915050565b60008060006060848603121561283e5761283d611c3b565b5b600084013567ffffffffffffffff81111561285c5761285b611c40565b5b61286886828701611f4c565b935050602084013567ffffffffffffffff81111561288957612888611c40565b5b61289586828701611f4c565b92505060406128a686828701612810565b9150509250925092565b60006128bb8261276f565b9050919050565b6128cb816128b0565b82525050565b60006020820190506128e660008301846128c2565b92915050565b7f496e76616c6964206576656e7420696e64657800000000000000000000000000600082015250565b6000612922601383611d19565b915061292d826128ec565b602082019050919050565b6000602082019050818103600083015261295181612915565b9050919050565b7f4e487b7100000000000000000000000000000000000000000000000000000000600052603260045260246000fd5b7f4576656e74206973206e6f742061637469766500000000000000000000000000600082015250565b60006129bd601383611d19565b91506129c882612987565b602082019050919050565b600060208201905081810360008301526129ec816129b0565b9050919050565b7f4576656e7420616c7265616479206f6363757272656400000000000000000000600082015250565b6000612a29601683611d19565b9150612a34826129f3565b602082019050919050565b60006020820190508181036000830152612a5881612a1c565b9050919050565b7f4576656e742069732066756c6c00000000000000000000000000000000000000600082015250565b6000612a95600d83611d19565b9150612aa082612a5f565b602082019050919050565b60006020820190508181036000830152612ac481612a88565b9050919050565b600081519050612ada81611cb5565b92915050565b600060208284031215612af657612af5611c3b565b5b6000612b0484828501612acb565b91505092915050565b7f496e73756666696369656e7420746f6b656e2062616c616e6365000000000000600082015250565b6000612b43601a83611d19565b9150612b4e82612b0d565b602082019050919050565b60006020820190508181036000830152612b7281612b36565b9050919050565b7f4e487b7100000000000000000000000000000000000000000000000000000000600052601160045260246000fd5b6000612bb382611cab565b91507fffffffffffffffffffffffffffffffffffffffffffffffffffffffffffffffff8203612be557612be4612b79565b5b600182019050919050565b6000612c0b612c06612c0184611c45565b612743565b611cab565b9050919050565b612c1b81612bf0565b82525050565b6000602082019050612c366000830184612c12565b92915050565b7f4e487b7100000000000000000000000000000000000000000000000000000000600052602260045260246000fd5b60006002820490506001821680612c8357607f821691505b602082108103612c9657612c95612c3c565b5b50919050565b7f5a65726f206e6f7420616c6c6f77656400000000000000000000000000000000600082015250565b6000612cd2601083611d19565b9150612cdd82612c9c565b602082019050919050565b60006020820190508181036000830152612d0181612cc5565b9050919050565b7f4f6e6c79206f776e65722063616e20646f207468697300000000000000000000600082015250565b6000612d3e601683611d19565b9150612d4982612d08565b602082019050919050565b60006020820190508181036000830152612d6d81612d31565b9050919050565b6000612d7f82611cab565b9150612d8a83611cab565b9250828201905080821115612da257612da1612b79565b5b92915050565b60008190508160005260206000209050919050565b60006020601f8301049050919050565b600082821b905092915050565b600060088302612e0a7fffffffffffffffffffffffffffffffffffffffffffffffffffffffffffffffff82612dcd565b612e148683612dcd565b95508019841693508086168417925050509392505050565b6000612e47612e42612e3d84611cab565b612743565b611cab565b9050919050565b6000819050919050565b612e6183612e2c565b612e75612e6d82612e4e565b848454612dda565b825550505050565b600090565b612e8a612e7d565b612e95818484612e58565b505050565b5b81811015612eb957612eae600082612e82565b600181019050612e9b565b5050565b601f821115612efe57612ecf81612da8565b612ed884612dbd565b81016020851015612ee7578190505b612efb612ef385612dbd565b830182612e9a565b50505b505050565b600082821c905092915050565b6000612f2160001984600802612f03565b1980831691505092915050565b6000612f3a8383612f10565b9150826002028217905092915050565b612f5382611d0e565b67ffffffffffffffff811115612f6c57612f6b611e4f565b5b612f768254612c6b565b612f81828285612ebd565b600060209050601f831160018114612fb45760008415612fa2578287015190505b612fac8582612f2e565b865550613014565b601f198416612fc286612da8565b60005b82811015612fea57848901518255600182019150602085019450602081019050612fc5565b868310156130075784890151613003601f891682612f10565b8355505b6001600288020188555050505b505050505050565b600081905092915050565b600061303282611d0e565b61303c818561301c565b935061304c818560208601611d2a565b80840191505092915050565b60006130648284613027565b915081905092915050565b60006020820190506130846000830184611d9e565b92915050565b7f496e76616c696420616464726573730000000000000000000000000000000000600082015250565b60006130c0600f83611d19565b91506130cb8261308a565b602082019050919050565b600060208201905081810360008301526130ef816130b3565b9050919050565b600067ffffffffffffffff82111561311157613110611e4f565b5b602082029050602081019050919050565b600080fd5b600080fd5b600080fd5b600061314461313f84611eca565b611eaf565b9050828152602081018484840111156131605761315f611e4a565b5b61316b848285611d2a565b509392505050565b600082601f83011261318857613187611e45565b5b8151613198848260208601613131565b91505092915050565b6000815190506131b0816127f9565b92915050565b600067ffffffffffffffff8211156131d1576131d0611e4f565b5b602082029050602081019050919050565b6131eb8161210c565b81146131f657600080fd5b50565b600081519050613208816131e2565b92915050565b600061322161321c846131b6565b611eaf565b9050808382526020820190506020840283018581111561324457613243613122565b5b835b8181101561326d578061325988826131f9565b845260208401935050602081019050613246565b5050509392505050565b600082601f83011261328c5761328b611e45565b5b815161329c84826020860161320e565b91505092915050565b600481106132b257600080fd5b50565b6000815190506132c4816132a5565b92915050565b600060c082840312156132e0576132df613127565b5b6132ea60c0611eaf565b9050600082015167ffffffffffffffff81111561330a5761330961312c565b5b61331684828501613173565b600083015250602082015167ffffffffffffffff81111561333a5761333961312c565b5b61334684828501613173565b602083015250604061335a848285016131a1565b604083015250606082015167ffffffffffffffff81111561337e5761337d61312c565b5b61338a84828501613277565b606083015250608061339e848285016131a1565b60808301525060a06133b2848285016132b5565b60a08301525092915050565b60006133d16133cc846130f6565b611eaf565b905080838252602082019050602084028301858111156133f4576133f3613122565b5b835b8181101561343b57805167ffffffffffffffff81111561341957613418611e45565b5b80860161342689826132ca565b855260208501945050506020810190506133f6565b5050509392505050565b600082601f83011261345a57613459611e45565b5b815161346a8482602086016133be565b91505092915050565b60006020828403121561348957613488611c3b565b5b600082015167ffffffffffffffff8111156134a7576134a6611c40565b5b6134b384828501613445565b91505092915050565b7f537563682070726f706f73616c20646f6573206e6f7420657869737400000000600082015250565b60006134f2601c83611d19565b91506134fd826134bc565b602082019050919050565b60006020820190508181036000830152613521816134e5565b9050919050565b7f596f75206d75737420686f6c6420746f6b656e7420746f20766f746500000000600082015250565b600061355e601c83611d19565b915061356982613528565b602082019050919050565b6000602082019050818103600083015261358d81613551565b9050919050565b61359d81611c45565b82525050565b60006060820190506135b86000830186613594565b6135c56020830185611db9565b6135d26040830184612479565b949350505050565b7f43616e6e6f742073776170207a65726f20616d6f756e7420666f72204556482060008201527f746f6b656e000000000000000000000000000000000000000000000000000000602082015250565b6000613636602583611d19565b9150613641826135da565b604082019050919050565b6000602082019050818103600083015261366581613629565b9050919050565b60006040820190506136816000830185612479565b61368e6020830184611d9e565b9392505050565b7f5075726368617365206661696c65640000000000000000000000000000000000600082015250565b60006136cb600f83611d19565b91506136d682613695565b602082019050919050565b600060208201905081810360008301526136fa816136be565b9050919050565b60006020820190506137166000830184613594565b92915050565b60008060008060008060c0878903121561373957613738611c3b565b5b600087015167ffffffffffffffff81111561375757613756611c40565b5b61376389828a01613173565b965050602087015167ffffffffffffffff81111561378457613783611c40565b5b61379089828a01613173565b95505060406137a189828a016131a1565b945050606087015167ffffffffffffffff8111156137c2576137c1611c40565b5b6137ce89828a01613277565b93505060806137df89828a016131a1565b92505060a06137f089828a016132b5565b9150509295509295509295565b7f4f7574206f6620626f756e640000000000000000000000000000000000000000600082015250565b6000613833600c83611d19565b915061383e826137fd565b602082019050919050565b6000602082019050818103600083015261386281613826565b9050919050565b600060608201905081810360008301526138838186611d65565b905081810360208301526138978185611d65565b90506138a66040830184612376565b94935050505056fea2646970667358221220b38bbd76eae66eac26870ed9b947f8d89520691ca3ba4ae4702fabbd7c718f0f64736f6c634300081b0033",
  "linkReferences": {},
  "deployedLinkReferences": {}
}